:1000000064EF2BF00000000000EF00F000000000A3
:0A0010000000000000000000F3D71C
:10001C00DEC26FFF016A0150000A05E1000E6DB0EF
:0C002C00010E016EF8D76FCF01F012003A
:0E003800ADB202D00000FCD7DEC2AEFF120057
:0E004600A8B202D00000FCD7DEC2A9FF120053
:10005400DEC2C9FF016A0150000A05E1000EC7B003
:0C006400010E016EF8D7C9CF01F01200A8
:10007000F250026EF29E0500FF6A0150FE6E0050C3
:08008000FD6E02BEF28E1200BB
:100088000B820BAE4EEF00F003680268016800684F
:080098000A360232FF0E1200CD
:0E00A000026A016A006A086A036A000E120012
:1000AE006DB409D01F0E6B14016E0150000A03E1EE
:0A00BE00010E006E01D0006A12006E
:0800C8000AAE029E000E1200B8
:1000D0000B840BAE73EF00F0010E036E026A016A2F
:0A00E000006A0A360232FF0E120019
:0400EA006B84120011
:1000EE000CB0B9EF00F00CA25FEF01F00E6A000E3B
:1000FE000264D0EF00F0F00E0214D8A49BEF00F0D3
:10010E00023A01380F0B02260138F00B016E00384F
:10011E000F0B01260038F00B006E08380F0B00266F
:10012E000838F00B086E0E84D89002BEB4EF00F0C3
:10013E0008360036013602360E2A02BEB4EF00F043
:10014E0008360036013602360E2A02BEB4EF00F033
:10015E0008360036013602360E2A0E50036455EF6D
:10016E0001F0035E0BBC08AE5AEF01F0D880800E92
:10017E0008640030000E002201220222D8A05AEF9D
:10018E0001F0023201320032034A5FEF01F05AEF02
:10019E0001F001C002F000C001F008C000F0086AD2
:1001AE00000E0E86026407EF01F0F00E0214D8A4C2
:1001BE00EFEF00F0023A01380F0B02260138F00B78
:1001CE00016E00380F0B01260038F00B006E0E8406
:1001DE00D89002BEB4EF00F00036013602360E2A79
:1001EE0002BEB4EF00F00036013602360E2A02BE11
:1001FE00B4EF00F00036013602360E2AB4EF00F0EE
:10020E0001C002F000C001F0006A000E0E960E88CA
:10021E00026434EF01F0F00E0214D8A41FEF01F0C7
:10022E00023A01380F0B02260138F00B016E0E84D4
:10023E00D89002BEB4EF00F0013602360E2A02BE8E
:10024E00B4EF00F0013602360E2A02BEB4EF00F013
:10025E00013602360E2AB4EF00F001C002F0016A38
:10026E00000E0E86026464EF01F0F00E0214D8A4A4
:10027E0043EF01F0023A0E84D89002BEB4EF00F0C4
:10028E0002360E2A02BEB4EF00F002360E2A02BE6D
:10029E00B4EF00F002360E2AB4EF00F0010E0C6E31
:1002AE0010DF67EF01F0020E0C6E07DF67EF01F053
:1002BE00040E0C6EE2DE67EF01F0080E0C6EE9DE46
:0202CE0012001C
:1002D0002DC0D8F22EC0D9F22FC0DAF230C0DBF236
:1002E0006B826BA21FD02D502E102F10301019E0F2
:1002F0000201D851D911DA11DB110CE15EC1E1FF25
:100300005FC1E2FF060EE66E5CC100F05DC101F068
:10031000AFDE08D0010E0201D85F000ED95BDA5BB8
:06032000DB5BDFD71200D9
:10032600A49ED8C26FFF2DC0D9F22EC0DAF22FC01C
:10033600DBF230C0DCF26DA421D02D502E102F1030
:1003460030101BE00201D951DA11DB11DC110EE18C
:100356005EC1E1FF5FC1E2FF040EE66E5CC100F024
:100366005DC101F082DE010E006E3AD0010E02017F
:10037600D95F000EDA5BDB5BDC5BDDD72DC0D9F223
:100386002EC0DAF22FC0DBF230C0DCF2A4BE21D0E0
:100396002D502E102F1030101BE00201D951DA110A
:1003A600DB11DC110EE15EC1E1FF5FC1E2FF040E6D
:1003B600E66E5CC100F05DC101F057DE010E006E15
:1003C6000FD0010E0201D95F000EDA5BDB5BDC5B4E
:1003D600DDD76BBC02D0006A03D06B84020E006EC0
:0203E600120003
:1003E8002DC0DAF22EC0DBF22FC0DCF230C0DDF215
:1003F8000201D86BD96BD951120802E1D8518E0885
:1004080008E351DE005201E004D00201D84BD92B99
:10041800F2D70201120ED95D02E18F0ED85D03E317
:100428007B0E006E24D06B806BA020D02D502E1038
:100438002F1030101AE0DA51DB11DC11DD110EE15A
:100448005EC1E1FF5FC1E2FF050EE66E5CC100F030
:100458005DC101F009DE010E006E09D0010E020136
:10046800DA5F000EDB5BDC5BDD5BDED7006A120067
:100478002DC0DAF22EC0DBF22FC0DCF230C0DDF284
:10048800A49E6B86A4BE1FD02D502E102F103010A6
:1004980019E00201DA51DB11DC11DD110CE15EC15A
:1004A800E1FF5FC1E2FF030EE66E5CC100F05DC1D3
:1004B80001F0DADD08D0010E0201DA5F000EDB5B25
:1004C800DC5BDD5BDFD702016FCFD9F2D851000AC0
:1004D80002E16B8A01D06B9AA49E6B882DC0DAF278
:1004E8002EC0DBF22FC0DCF230C0DDF2A4BE1FD07C
:1004F8002D502E102F10301019E00201DA51DB11A7
:10050800DC11DD110CE15EC1E1FF5FC1E2FF030E0A
:10051800E66E5CC100F05DC101F0A6DD08D0010EF9
:100528000201DA5F000EDB5BDC5BDD5BDFD7D9C283
:0405380000F01200BD
:10053C000D6A086A0050D8B4000C04180A6E0ABE82
:10054C000D1E0B6A04AE02D0041E042A00AE02D0AB
:10055C00001E002A005004100A6E0ABE1FD0045060
:10056C00085E003600340836045008260036060EA5
:10057C000C6E00340836045000B0085E00A008264B
:10058C0000360C2EF6D700A008260BB015D00DAEF9
:10059C00000C001E002A081E082A000C04AE09D00C
:1005AC0000BE04D00050086E006AF1D7006A002A21
:1005BC00000C001E0B2AD3D7082A0450085CD8A4C0
:0E05CC00E6D7086A002A00AEE2D7FF0C120044
:1005DA00D7C26CF104DFEC0E0201D86F9FDE6CC14A
:1005EA00D8F29CDE70DEED0E0201D86F97DE0201B2
:1005FA00D86B3DDF00C06CF173DD6CC100F01200F6
:10060A000B800BAE11EF03F0026A0AAEFF0E026E08
:0C061A00016E006E0A360232FF0E120064
:10062600025006180E6E086A096A0B6A03500764C0
:1006360006EF04F006500A6E068E028E03500B6E0D
:100646000750036E000E0B6456EF03F00B50075E67
:10065600D8B4F7EF03F0070E0764C5EF03F0075EA3
:1006660000C008F001C000F002C001F0026A074EA7
:10067600F7EF03F007649AEF03F0075E00C008F097
:1006860001C000F0016A074EF7EF03F0076478EF48
:1006960003F0075E00C008F0006A074EF7EF03F0AC
:1006A60007645FEF03F00AC002F005C001F004C062
:1006B60000F0086A23EF05F0030E07646AEF03F003
:1006C600075E08380F0B086E074EF7EF03F0D89059
:1006D6000832074EF7EF03F0D8900832074EF7EFCF
:1006E60003F0D8900832F7EF03F0030E076489EFA2
:1006F60003F0075E08380F0B086E0038F00B08266B
:1007060000380F0B006E074EF7EF03F0D89000325B
:100716000832074EF7EF03F0D89000320832074E42
:10072600F7EF03F0D89000320832F7EF03F0030E2C
:100736000764B1EF03F0075E08380F0B086E003848
:10074600F00B082600380F0B006E0138F00B002660
:1007560001380F0B016E074EF7EF03F0D890013208
:1007660000320832074EF7EF03F0D890013200321C
:100776000832074EF7EF03F0D89001320032083204
:10078600F7EF03F0030E0764E2EF03F0075E0838A5
:100796000F0B086E0038F00B082600380F0B006EA2
:1007A6000138F00B002601380F0B016E0238F00BF2
:1007B600012602380F0B026E074EF7EF03F0D890B2
:1007C6000232013200320832074EF7EF03F0D890BA
:1007D6000232013200320832074EF7EF03F0D890AA
:1007E6000232013200320832096A000E0EAEEBEF19
:1007F60004F0081E001E011E021E082A0022012205
:100806000222EBEF04F00750D8A40CEF04F023EF1C
:1008160005F0096A02C00AF0028E068E0750035CD4
:10082600076ED8B4DEEF04F0070E0764ACEF04F0F1
:10083600075E0450096E0550046E0650056E066A82
:10084600074EDEEF04F0070E076481EF04F0075E43
:100856000450096E0550046E056A074EDEEF04F07B
:10086600070E07645FEF04F0075E0450096E046A22
:10087600074EDEEF04F0070E076446EF04F00AC0E9
:1008860002F023EF05F0030E076451EF04F0075E54
:1008960009380F0B096E074EDEEF04F0D8900932C7
:1008A600074EDEEF04F0D8900932074EDEEF04F073
:1008B600D8900932DEEF04F0030E076470EF04F0FF
:1008C600075E09380F0B096E0438F00B0926043849
:1008D6000F0B046E074EDEEF04F0D8900432093297
:1008E600074EDEEF04F0D89004320932074EDEEFF1
:1008F60004F0D89004320932DEEF04F0030E0764E8
:1009060098EF04F0075E09380F0B096E0438F00BF8
:10091600092604380F0B046E0538F00B042605383B
:100926000F0B056E074EDEEF04F0D8900532043249
:100936000932074EDEEF04F0D89005320432093250
:10094600074EDEEF04F0D890053204320932DEEFAE
:1009560004F0030E0764C9EF04F0075E09380F0BB5
:10096600096E0438F00B092604380F0B046E05389F
:10097600F00B042605380F0B056E0638F00B05261E
:1009860006380F0B066E074EDEEF04F0D8900632DF
:10099600053204320932074EDEEF04F0D8900632F3
:1009A600053204320932074EDEEF04F0D8900632E3
:1009B600053204320932086A000E0EAEEBEF04F07F
:1009C600091E041E051E061E092A042205220622E9
:1009D6000950082604500022055001220650022222
:1009E6000EBE02EF05F0D8A011EF05F0023201327B
:1009F60000320832033E11EF05F01DEF05F0D8B0C6
:100A060017EF05F0000E081E001E011E021E082A22
:100A16000022012202220A7E17EF05F0010E0C6E5B
:100A260077EC00F025EF05F0020E0C6E77EC00F087
:100A360025EF05F0040E0C6E44EC00F025EF05F0F2
:060A4600000E0C6E120010
:100A4C00086A080E0C6E003408360450085ED8B0E4
:0E0A5C0002D00826D89000360C2EF5D71200D6
:080A6A000B6A0B86FF0E12005F
:100A72000134083609360450085E0550D8A0053CFA
:100A8200095E003601360F0E0C6E01340836093647
:100A9200045000A006D0085E0550D8A0053C095EAF
:100AA20005D008260550D8B0053C09260036013687
:100AB2000C2EEBD700B006D0045008260550D8B053
:080AC200053C092600001200AA
:100ACA00086A096A000E07620364EAEF05F0025039
:100ADA0006180A6E075003267E0ED8A07BEF05F093
:100AEA00035ED8B0EFEF05F07FEF05F0035ED8A004
:100AFA00F4EF05F0028E068E02C00EF001C00BF074
:100B0A0000C00DF000500402F4CF0CF001500502B1
:100B1A00F4CF00F0F3CF08F00402F3500C26F4509F
:100B2A000822000E00220D500502F3500C26F45044
:100B3A000822000E002202500402F3500826F45044
:100B4A00002202500502016A000E0122F35000261B
:100B5A00F45001220D500602F3500826F4500022E8
:100B6A00026A000E012202220B500602F3500026EE
:100B7A00F4500122000E02220E500602F350012602
:100B8A00F450022202BED2EF05F0083600360136D2
:100B9A0002360306D8B4F4EF05F0E5EF05F0D88085
:100BAA00800E08640030000E002201220222D8A022
:100BBA00E5EF05F0023201320032034AEFEF05F0A9
:100BCA000AAE029E000EF7EF05F0010E50EC00F09F
:100BDA00F7EF05F0020E44EC00F0F7EF05F0040E13
:060BEA0068EC00F01200AF
:100BF0000B6A0C6A086A0350D8B47CEF06F002C096
:100C00000AF0028E9E0E035E03AE6CEF06F0036CDC
:100C1000080E035CD8A039EF06F0036E083600C05A
:100C200008F001C000F002C001F0026A080E035C87
:100C3000D8A039EF06F0036E083600C008F001C0F6
:100C400000F0016A080E035CD8A039EF06F0036ECD
:100C5000083600C008F0006A080E035CD8A039EF1F
:100C600006F0036E0836086A0350D8A4D89045EF02
:100C700006F00350D8B445EF06F0D89002320132A6
:100C800000320832032E3DEF06F00BBC08A056EFF1
:100C900006F0D8A056EF06F0082AD8B4002AD8B437
:100CA000012AD8B4022A02BE80EF06F00AAE7CEF19
:100CB00006F0021E011E001E081E082AD8B4002AD3
:100CC000D8B4012AD8B4022A7CEF06F0026A016A7D
:100CD000006A086A7CEF06F00B800BAE86EF06F028
:100CE000026A0AAE86EF06F0026E016E006E086EB2
:100CF0000A36023286EF06F00C6A000E87EF06F025
:100D0000010E0C6E000E81DC87EF06F0FF0E025024
:100D1000036E0150026E0050016E0850006E12000A
:100D20000050086E0150006E0250016E0350026EBA
:100D3000036A0B6A0C6A9E0E036E0A6A020E0C6E40
:060D400077EC00F0120048
:100D46000450000A12E10550000A0FE10650000A9D
:100D56000CE10750000A09E1FF0E006EFF0E016E5E
:100D66007F0E026EFF0E036EA7D0086A096A07504F
:100D7600D8B44EEF07F00350D8B452EF07F0025044
:100D860006180A6E028E068E0E6A02C008F001C0B0
:100D96000CF000C00DF004500D5E0550D8A0053CC7
:100DA6000C5E0650D8A0063C085E086A0C6A0D6AFE
:100DB600D8A0E5EF06F0D8900232013200320832B0
:100DC600010E0E6E0750035ED8A0F2EF06F07E0EFF
:100DD6000E240326D8B057EF07F0F8EF06F07E0E84
:100DE6000E240326D8A05CEF07F0180E0B6E0D3606
:100DF6000C3608360036013602360E360450005ED2
:100E06000550D8A0053C015E0650D8A0063C025EFF
:100E160006340E120EA013EF07F00D801EEF07F03A
:100E2600045000260550D8B0053C01260650D8B01F
:100E3600062802260D900B2EFAEF06F044EF07F077
:100E4600D8900036013602360E360450005E055044
:100E5600D8A0053C015E0650D8A0063C025E0634CA
:100E66000E10010B0D26D8B00C2AD8B4082AD8A427
:100E760044EF07F008320C320D32032AD8B457EF8C
:100E860007F00AAE089E0850026E0C50016E0D5017
:100E9600006E5FEF07F0010EE5DD5FEF07F0020E73
:100EA60050EC00F05FEF07F0040E44EC00F05FEF4B
:0A0EB60007F0080E68EC00F01200CF
:100EC0000450000A08E10550000A05E1FF0E006E1B
:100ED0007F0E016E57D00D6A096A086A0150001032
:100EE000D8B4000C015005180A6E0ABE0D1E0B6A1C
:100EF00005AE05D0041E051E042AD8B4052A01AE8D
:100F000005D0001E011E002AD8B4012A0150051088
:100F10000A6E0ABE10D0ADDD0BB020D00DAE000CB5
:100F2000001E011E002AD8B4012A081E091E082A24
:100F3000D8B4092A000C05AE0DD001BE07D001506F
:100F4000096E0050086E016A006AE8D7016A006AFB
:100F5000002A000C011E001E0B2ADDD7082AD8B477
:100F6000092A0450085CD8A4D9D70550095CD8A434
:100F7000D5D7096A086A002AD8B4012A01AECED7AB
:060F80000000FF0C12004E
:0C0F8600F40E0201D76FEDEC02F0120037
:100F9200D2C26CF1D3C26DF1F4EC01F0EC0E02019D
:100FA200D86F93EC01F06CC1D8F293EC01F06DC1F3
:0C0FB200D8F293EC01F075EC00F0120096
:080FBE00067E13EC03F01200A3
:100FC6006E0E0201D25DD8A0C3D0640E046ED2C2EA
:100FD60000F039DD120E0024056E066A000E0622A8
:100FE60005C000F006C001F0000E06BEFF0E026E40
:100FF600036E003600900136023603360036009046
:10100600013602360336690E0024F66E580E0120AC
:10101600F76E000E0220F86E0900F5CF00F0090009
:10102600F5CF01F00900F5CF02F00900F5CF03F086
:10103600000E046E000E056E000E066E7E0E076E26
:1010460041DD00C0D3F201C0D4F202C0D5F203C024
:10105600D6F2640E046ED2C200F0F5DC08C000F0D1
:101066000A0E046EF0DC090E0024056E066A000EF8
:10107600062205C000F006C001F0000E06BEFF0EF7
:10108600026E036E003600900136023603360036D5
:101096000090013602360336690E0024F66E580EAD
:1010A6000120F76E000E0220F86E0900F5CF00F061
:1010B6000900F5CF01F00900F5CF02F00900F5CFE0
:1010C60003F0D3C204F0D4C205F0D5C206F0D6C2EE
:1010D60007F0F8DC00C0D3F201C0D4F202C0D5F2AA
:1010E60003C0D6F20A0E046ED2C200F0ACDC08C011
:1010F60000F000C001F0000E026E036E046E0136B1
:101106000190023603360436013601900236033664
:101116000436690E0124F66E580E0220F76E000E94
:101126000320F86E0900F5CF00F00900F5CF01F0B5
:101136000900F5CF02F00900F5CF03F0D3C204F0A1
:10114600D4C205F0D5C206F0D6C207F0BBDCACD0DF
:10115600D2510A08D8B07AD00A0E046ED2C200F074
:1011660072DC090E0024056E066A000E062205C012
:1011760000F006C001F0000E06BEFF0E026E036E02
:1011860000360090013602360336003600900136EE
:1011960002360336690E0024F66E580E0120F76EED
:1011A600000E0220F86E0900F5CF00F00900F5CF19
:1011B60001F00900F5CF02F00900F5CF03F0000EAB
:1011C600046E000E056E000E066E7E0E076E7ADC4D
:1011D60000C0D3F201C0D4F202C0D5F203C0D6F2E9
:1011E6000A0E046ED2C200F02EDC08C000F000C069
:1011F60001F0000E026E036E046E01360190023697
:101206000336043601360190023603360436690E7B
:101216000124F66E580E0220F76E000E0320F86EBB
:101226000900F5CF00F00900F5CF01F00900F5CF70
:1012360002F00900F5CF03F0D3C204F0D4C205F0E2
:10124600D5C206F0D6C207F03DDC2ED0D2C200F0E1
:10125600000E016E026E036E0036009001360236F5
:10126600033600360090013602360336690E002436
:10127600F66E580E0120F76E000E0220F86E090079
:10128600F5CF00F00900F5CF01F00900F5CF02F027
:101296000900F5CF03F0000E046E000E056E000E79
:0A12A600066E7E0E076E0EDC1200CD
:1012B000AACF01F09CA202D09C989C8801C000F0AB
:0212C00012001A
:1012C200220E0C6E086A096A0A6A0B6A0C06D8B406
:1012D2001FD0D8900B320A3209320832033202325E
:1012E20001320032D8A0F2D70C06D8B409D004508B
:1012F20008260550092206500A2207500B22EAD777
:10130200045008260550092206500A2207500B22D3
:021312001200C7
:101314000B6A0A6A096A086A0E6A033408360450BA
:10132400085E0550D8A0053C095E0650D8A0063CCE
:101334000A5E0750D8A0073C0B5EE86AD8A0010EED
:101344000E5E0336070E0C6E0334083609360A3671
:101354000B360E36045003A012D0085E0550D8A0F8
:10136400053C095E0650D8A0063C0A5E0750D8A08A
:10137400073C0B5EE86AD8A0010E0E5E11D0082669
:101384000550D8B0053C09260650D8B0063C0A26BC
:101394000750D8B0073C0B26E86AD8B0010E0E26D9
:1013A40003360C2ED1D70234083609360A360B36EA
:1013B4000E36045003A012D0085E0550D8A0053C98
:1013C400095E0650D8A0063C0A5E0750D8A0073C28
:1013D4000B5EE86AD8A0010E0E5E11D008260550F7
:1013E400D8B0053C09260650D8B0063C0A2607505A
:1013F400D8B0073C0B26E86AD8B0010E0E26023698
:10140400070E0C6E0234083609360A360B360E36D1
:10141400045002A012D0085E0550D8A0053C095E15
:101424000650D8A0063C0A5E0750D8A0073C0B5EC5
:10143400E86AD8A0010E0E5E11D008260550D8B077
:10144400053C09260650D8B0063C0A260750D8B0F9
:10145400073C0B26E86AD8B0010E0E2602360C2E85
:10146400D1D70134083609360A360B360E36045005
:1014740002A012D0085E0550D8A0053C095E0650B3
:10148400D8A0063C0A5E0750D8A0073C0B5EE86A69
:10149400D8A0010E0E5E11D008260550D8B0053C28
:1014A40009260650D8B0063C0A260750D8B0073C97
:1014B4000B26E86AD8B0010E0E260136070E0C6E14
:1014C4000134083609360A360B360E36045001A0AC
:1014D40012D0085E0550D8A0053C095E0650D8A07D
:1014E400063C0A5E0750D8A0073C0B5EE86AD8A009
:1014F400010E0E5E11D008260550D8B0053C092611
:101504000650D8B0063C0A260750D8B0073C0B2634
:10151400E86AD8B0010E0E2601360C2ED1D700345D
:10152400083609360A360B360E36045001A012D09E
:10153400085E0550D8A0053C095E0650D8A0063CBC
:101544000A5E0750D8A0073C0B5EE86AD8A0010EDB
:101554000E5E11D008260550D8B0053C0926065069
:10156400D8B0063C0A260750D8B0073C0B26E86AD8
:10157400D8B0010E0E260036070E0C6E0034083665
:1015840009360A360B360E36045000A012D0085E17
:101594000550D8A0053C095E0650D8A0063C0A5E5A
:1015A4000750D8A0073C0B5EE86AD8A0010E0E5E77
:1015B40011D008260550D8B0053C09260650D8B0ED
:1015C400063C0A260750D8B0073C0B26E86AD8B078
:1015D400010E0E2600360C2ED1D700B00ED00450CA
:1015E40008260550D8B0053C09260650D8B0063C5C
:0C15F4000A260750D8B0073C0B26120056
:101600000B6A0C6A0A6A086A0350D8B488EF0BF0B8
:10161000028E9E0E035E03BE13EF0BF0D8B413EFE1
:101620000BF078EF0BF0036C080E035CD8A045EFCD
:101630000BF0036E083600C008F001C000F002C0D5
:1016400001F0026A080E035CD8A045EF0BF0036EB0
:10165000083600C008F001C000F0016A080E035C03
:10166000D8A045EF0BF0036E083600C008F0006A02
:10167000080E035CD8A045EF0BF0036E0836086A2D
:101680000350D8A4D89051EF0BF00350D8B451EFC9
:101690000BF0D8900232013200320832032E49EFAB
:1016A0000BF00BBC08A062EF0BF0D8A062EF0BF0C0
:1016B000082AD8B4002AD8B4012AD8B4022A02BE13
:1016C0008CEF0BF00AAE88EF0BF0021E011E001E1D
:1016D000081E082AD8B4002AD8B4012AD8B4022A8D
:1016E00088EF0BF0026A016A006A086A88EF0BF063
:1016F0000B800BAE92EF0BF0026A0AAE92EF0BF08A
:10170000026E016E006E086E0A36023292EF0BF026
:10171000000E0C6A93EF0BF0010E0C6E05EC03F05B
:1017200093EF0BF0FF0E0250036E0150026E00505B
:08173000016E0850006E12006A
:0A173800000EA4BA010E006E1200AC
:1017420003500718D8A4B5EF0BF002500618D8A41E
:10175200B5EF0BF001500518D8A4B5EF0BF000500F
:0E1762000418D8B4D8841200D89412001200D3
:101770000A6A0350D8A40A800750D8A40A820A50E3
:10178000D8B41BEF0CF0030AD8B4D4EF0BF00AB0B6
:10179000CFEF0BF006AE19EF0CF017EF0CF002AE26
:1017A00017EF0CF019EF0CF00250800B0A6E029E3E
:1017B0000650800B069E0A18D8B4E5EF0BF00A50CD
:1017C000D8B417EF0CF019EF0CF00750035CD8B445
:1017D000EFEF0BF0D8A00BEF0CF011EF0CF0065070
:1017E000025CD8B4F9EF0BF0D8A00BEF0CF011EFBE
:1017F0000CF00550015CD8B403EF0CF0D8A00BEF4F
:101800000CF011EF0CF00450005CD8B41BEF0CF09E
:10181000D8B011EF0CF00A52D8B419EF0CF017EF52
:101820000CF00A52D8B417EF0CF019EF0CF0D88076
:0E1830001200D8901200D880D8841200120046
:10183E000B6A0A6A096A00500402F4CF09F0F3CF6A
:10184E0008F001500502F4CF0BF0F3CF0AF0005070
:10185E000502F3500926F4500A22E86A0B220150C1
:10186E000402F3500926F4500A22E86A0B2208C03B
:10187E0000F009C001F00AC002F00BC003F0120024
:10188E00800E0201D219006E800E000A005CD8B0E4
:10189E006DD1D2510008016E01C0D2F2800E011836
:1018AE00006E800E6E0A005CD8A0C0D0640E046E6E
:1018BE00D2C200F09EEC02F0120E0024056E000E55
:1018CE0000BEFF0E066E000E062205C000F006C01A
:1018DE0001F0000E06BEFF0E026E036E0036009083
:1018EE0001360236033600360090013602360336D4
:1018FE00690E0024F66E580E0120F76E000E0220BF
:10190E00F86E0900F5CFD3F20900F5CFD4F2090035
:10191E00F5CFD5F20900F5CFD6F2640E046ED2C221
:10192E0000F09EEC02F008C000F00A0E046E9EEC71
:10193E0002F0090E0024056E000E00BEFF0E066EAC
:10194E00000E062205C000F006C001F0000E06BE15
:10195E00FF0E026E036E003600900136023603361D
:10196E0000360090013602360336690E0024F66EFC
:10197E00580E0120F76E000E0220F86E0900F5CF0A
:10198E0000F00900F5CF01F00900F5CF02F00900D3
:10199E00F5CF03F0D3C204F0D4C205F0D5C206F0E1
:1019AE00D6C207F065EC05F000C0D3F201C0D4F248
:1019BE0002C0D5F203C0D6F20A0E046ED2C200F0F7
:1019CE009EEC02F008C000F000C001F0000E00BE58
:1019DE00FF0E026E036E046E013601900236033660
:1019EE00043601360190023603360436690E0124A0
:1019FE00F66E580E0220F76E000E0320F86E0900E8
:101A0E00F5CF00F00900F5CF01F00900F5CF02F097
:101A1E000900F5CF03F0D3C204F0D4C205F0D5C24D
:101A2E0006F0D6C207F065EC05F007D2800E0A0A62
:101A3E00006E800ED219005C71E20A0E046ED2C2E4
:101A4E0000F09EEC02F0090E0024056E000E00BEA2
:101A5E00FF0E066E000E062205C000F006C001F055
:101A6E00000E06BEFF0E026E036E003600900136AB
:101A7E000236033600360090013602360336690E02
:101A8E000024F66E580E0120F76E000E0220F86E3E
:101A9E000900F5CFD3F20900F5CFD4F20900F5CF46
:101AAE00D5F20900F5CFD6F20A0E046ED2C200F0BE
:101ABE009EEC02F008C000F000C001F0000E00BE67
:101ACE00FF0E026E036E046E01360190023603366F
:101ADE00043601360190023603360436690E0124AF
:101AEE00F66E580E0220F76E000E0320F86E0900F7
:101AFE00F5CF00F00900F5CF01F00900F5CF02F0A7
:101B0E000900F5CF03F0D3C204F0D4C205F0D5C25C
:101B1E0006F0D6C207F065EC05F08FD1D2C200F008
:101B2E00000ED2BFFF0E016E026E036E00360090E5
:101B3E000136023603360036009001360236033681
:101B4E00690E0024F66E580E0120F76E000E02206C
:101B5E00F86E0900F5CF00F00900F5CF01F009008D
:101B6E00F5CF02F00900F5CF03F067D1800ED21940
:101B7E00006E800E6E0A005CD8A0C0D0640E046E9B
:101B8E00D2C200F09EEC02F0120E0024056E000E82
:101B9E0000BEFF0E066E000E062205C000F006C047
:101BAE0001F0000E06BEFF0E026E036E00360090B0
:101BBE000136023603360036009001360236033601
:101BCE00350E0024F66E580E0120F76E000E022020
:101BDE00F86E0900F5CFD3F20900F5CFD4F2090063
:101BEE00F5CFD5F20900F5CFD6F2640E046ED2C24F
:101BFE0000F09EEC02F008C000F00A0E046E9EEC9F
:101C0E0002F0090E0024056E000E00BEFF0E066ED9
:101C1E00000E062205C000F006C001F0000E06BE42
:101C2E00FF0E026E036E003600900136023603364A
:101C3E0000360090013602360336350E0024F66E5D
:101C4E00580E0120F76E000E0220F86E0900F5CF37
:101C5E0000F00900F5CF01F00900F5CF02F0090000
:101C6E00F5CF03F0D3C204F0D4C205F0D5C206F00E
:101C7E00D6C207F065EC05F000C0D3F201C0D4F275
:101C8E0002C0D5F203C0D6F20A0E046ED2C200F024
:101C9E009EEC02F008C000F000C001F0000E00BE85
:101CAE00FF0E026E036E046E01360190023603368D
:101CBE00043601360190023603360436350E012401
:101CCE00F66E580E0220F76E000E0320F86E090015
:101CDE00F5CF00F00900F5CF01F00900F5CF02F0C5
:101CEE000900F5CF03F0D3C204F0D4C205F0D5C27B
:101CFE0006F0D6C207F065EC05F09FD0800E0A0AFA
:101D0E00006E800ED219005C71E20A0E046ED2C211
:101D1E0000F09EEC02F0090E0024056E000E00BECF
:101D2E00FF0E066E000E062205C000F006C001F082
:101D3E00000E06BEFF0E026E036E003600900136D8
:101D4E000236033600360090013602360336350E63
:101D5E000024F66E580E0120F76E000E0220F86E6B
:101D6E000900F5CFD3F20900F5CFD4F20900F5CF73
:101D7E00D5F20900F5CFD6F20A0E046ED2C200F0EB
:101D8E009EEC02F008C000F000C001F0000E00BE94
:101D9E00FF0E026E036E046E01360190023603369C
:101DAE00043601360190023603360436350E012410
:101DBE00F66E580E0220F76E000E0320F86E090024
:101DCE00F5CF00F00900F5CF01F00900F5CF02F0D4
:101DDE000900F5CF03F0D3C204F0D4C205F0D5C28A
:101DEE0006F0D6C207F065EC05F027D0D2C200F09F
:101DFE00000ED2BFFF0E016E026E036E0036009013
:101E0E0001360236033600360090013602360336AE
:101E1E00350E0024F66E580E0120F76E000E0220CD
:101E2E00F86E0900F5CF00F00900F5CF01F00900BA
:0C1E3E00F5CF02F00900F5CF03F0120010
:0C1E4A00F50E0201D76FEDEC02F0120063
:101E56000201D251390806E3300ED25D03E3010ECA
:081E6600006E01D0006A1200B9
:101E6E000201B06BB16BAE5343E0AE51FF0AD8A482
:101E7E00AE075BDC0050000A01E1FBD758EC09F01D
:101E8E0000C0AFF20201B051AA25E16E000EAB21E7
:101E9E00E26E00C0E6FFB02BB151AC25E96E000E2C
:101EAE00AD21EA6EEE50AF1902E1B12B09D0B16B44
:101EBE00ACC2E9FFADC2EAFFEE50AF19D8B4B12BF8
:101ECE00B151AC25E96E000EAD21EA6EEE50000A5E
:101EDE000EE1B151B05D006E016A000E015A005064
:101EEE00AA25E16E0150AB21E26EE66A06D0BBD7A1
:0C1EFE00AAC2E1FFABC2E2FFE66A1200DC
:0C1F0A00F30E0201D76FEDEC02F01200A4
:041F160099DF12003D
:101F1A00A5C100F0A6C101F0A7C102F0A8C103F053
:101F2A000332023201320032039E03BC038E00C028
:101F3A00BEF201C0BFF202C0C0F203C0C1F2000E7D
:101F4A000201BE5FFA0EBF5B000EC05B000EC15BF2
:101F5A00BEC2AAF2BFC2ABF2C0C2ACF2C1C2ADF2FB
:101F6A00BEC200F0BFC201F0C0C202F0C1C203F09B
:101F7A000332023201320032039E03BC038E033263
:101F8A00023201320032039E03BC038E00C004F009
:101F9A0001C005F002C006F003C007F061EC09F0C9
:101FAA0000C0BAF201C0BBF202C0BCF203C0BDF26B
:101FBA000B0E006EBAC204F0BBC205F0BCC206F03A
:101FCA00BDC207F0005009E007320632053204327A
:101FDA00079E07BC078EFF0FF6D794C100F095C184
:101FEA0001F0000E010195BFFF0E026E036E61EC57
:101FFA0009F000C0B6F201C0B7F202C0B8F203C0DD
:10200A00B9F2B6C2AEF2B7C2AFF2B8C2B0F2B9C252
:10201A00B1F292C100F093C101F0000E93BFFF0E1E
:10202A00026E036EBEC204F0BFC205F0C0C206F063
:10203A00C1C207F061EC09F000C004F001C005F06C
:10204A0002C006F003C007F00436049005360636CF
:10205A00073604500201B625AE6F0550B721AF6F9F
:10206A000650B821B06F0750B921B16FB133B03300
:10207A00AF33AE33B19FB1BDB18FB133B033AF33EC
:10208A00AE33B19FB1BDB18F90C105F091C106F0D9
:10209A00000E010191BFFF0E076E086E06C003F025
:1020AA0005C002F0006A016A00500201AE27015021
:1020BA00AF230250B0230350B1230D0E046EBAC2EF
:1020CA0000F0BBC201F0BCC202F0BDC203F0045072
:1020DA0009E00332023201320032039E03BC038E4E
:1020EA00FF0FF6D78EC104F08FC105F0000E010173
:1020FA008FBFFF0E066E076E61EC09F0030E046EC9
:10210A0000C0B6F201C0B7F202C0B8F203C0B9F219
:10211A0004500AE00201B933B833B733B633B99F72
:10212A00B9BDB98FFF0FF5D78CC100F08DC101F091
:10213A00000E01018DBFFF0E026E036EBEC204F0D7
:10214A00BFC205F0C0C206F0C1C207F061EC09F0D7
:10215A0000C004F001C005F002C006F003C007F099
:10216A000732063205320432079E07BC078E045036
:10217A000201B625086E0550B721096E0650B8212E
:10218A000A6E0750B9210B6E120E046E08C000F0D9
:10219A0009C001F00AC002F00BC003F0045009E0C4
:1021AA000332023201320032039E03BC038EFF0F58
:1021BA00F6D700C0AAF201C0ABF202C0ACF203C06B
:1021CA00ADF2000E0024046E800E0120056E000E92
:1021DA000220066E000E0320076E8AC100F08BC132
:1021EA0001F0000E026E036E61EC09F00F0E086E2C
:1021FA0000C004F001C005F002C006F003C007F0F9
:10220A00085009E00732063205320432079E07BC3D
:10221A00078EFF0FF6D704C0AAF205C0ABF206C0BC
:10222A00ACF207C0ADF2000E006E071808E10050CC
:10223A00061805E10050051802E10450000A05E1FC
:10224A00006A016A026A036A75D1000E086E000EFE
:10225A00096E100E0A6E000E0B6E01012C51085EFB
:10226A002D51095A2E510A5A2F510B5A0C0E006E33
:10227A00AEC204F0AFC205F0B0C206F0B1C207F0B8
:10228A00005009E00732063205320432079E07BCC5
:10229A00078EFF0FF6D708C000F009C001F00AC088
:1022AA0002F00BC003F00450005E0550015A0650BC
:1022BA00025A0750035A350E046E0C0E056E000EB4
:1022CA00066E076E61EC09F000C0B2F201C0B3F20B
:1022DA0002C0B4F203C0B5F2800E035C08E1000E3E
:1022EA00025C05E1000E015C02E1000E005C20E2E6
:1022FA00B2C200F0B3C201F0B4C202F0B5C203F038
:10230A0000360090013602360336AAC204F0ABC288
:10231A0005F0ACC206F0ADC207F08AEC09F000C0C5
:10232A00B2F201C0B3F202C0B4F203C0B5F220D0D7
:10233A00AAC204F0ABC205F0ACC206F0ADC207F007
:10234A00B2C200F0B3C201F0B4C202F0B5C203F0E7
:10235A008AEC09F000C0B2F201C0B3F202C0B4F2D2
:10236A0003C0B5F20201B237B291B337B437B53709
:10237A009AC1B6F29BC1B7F2000E01019BBFFF0ED4
:10238A000201B86FB96F030E046EB2C200F0B3C295
:10239A0001F0B4C202F0B5C203F0045007E0033200
:1023AA00023201320032039EFF0FF8D700C004F058
:1023BA0001C005F002C006F003C007F061EC09F0A5
:1023CA000D0E086E00C004F001C005F002C006F050
:1023DA0003C007F0085007E007320632053204321C
:1023EA00079EFF0FF8D7B6C200F0B7C201F0B8C215
:1023FA0002F0B9C203F061EC09F00C0E046E00C0E1
:10240A00B6F201C0B7F202C0B8F203C0B9F2045082
:10241A000AE00201B933B833B733B633B99FB9BD4D
:10242A00B98FFF0FF5D7B6C2AAF2B7C2ABF2B8C2DC
:10243A00ACF2B9C2ADF2B2C204F0B3C205F0B4C292
:10244A0006F0B5C207F00732063205320432079E9B
:10245A000732063205320432079E98C100F099C14C
:10246A0001F0000E010199BFFF0E026E036E61ECCE
:10247A0009F00D0E086E00C004F001C005F002C09C
:10248A0006F003C007F0085009E0073206320532A9
:10249A000432079E07BC078EFF0FF6D704C0AEF2C0
:1024AA0005C0AFF206C0B0F207C0B1F20450020193
:1024BA00B625006E0550B721016E0650B821026E8E
:1024CA000750B921036E010196510024056E9751F8
:1024DA000120066E000E97BFFF0E0220076E000E47
:1024EA0097BFFF0E0320086E040E046E05C000F0AD
:1024FA0006C001F007C002F008C003F0045009E06A
:10250A000332023201320032039E03BC038EFF0FF4
:10251A00F6D70201B2510026B3510122B451022268
:10252A00B551032200C0B2F201C0B3F202C0B4F244
:06253A0003C0B5F212001F
:10254000A5C1BEF2A6C1BFF2A7C1C0F2A8C1C1F227
:10255000000E0201BE5F2C0EBF5B010EC05B000EC1
:10256000C15BBEC2B2F2BFC2B3F2C0C2B4F2C1C25A
:10257000B5F20E0E006E30C109F031C10AF032C161
:102580000BF033C10CF0005007E0093609900A3611
:102590000B360C36FF0FF8D7A0C105F0A1C106F02D
:1025A000000E0101A1BFFF0E076E086E140E046E2F
:1025B00005C000F006C001F007C002F008C003F03B
:1025C000045007E000360090013602360336FF0F54
:1025D000F8D709C0B6F20AC0B7F20BC0B8F20CC007
:1025E000B9F200500201B65F0150B75B0250B85B10
:1025F0000350B95BA2C100F0A3C101F0000E0101BC
:10260000A3BFFF0E026E036EBEC204F0BFC205F090
:10261000C0C206F0C1C207F061EC09F0B6C207F013
:10262000B7C208F0B8C209F0B9C20AF00050075E9C
:102630000150085A0250095A03500A5A000E072442
:10264000036E400E0820046E000E0920056E000E79
:102650000A20066E0F0E006E03C0BAF204C0BBF271
:1026600005C0BCF206C0BDF200500AE00201BD3355
:10267000BC33BB33BA33BD9FBDBDBD8FFF0FF5D794
:10268000A4C100F0000E0101A4BFFF0E016E026E96
:10269000036EBEC204F0BFC205F0C0C206F0C1C2E4
:1026A00007F061EC09F00A0E046E00C0B6F201C03A
:1026B000B7F202C0B8F203C0B9F204500AE0020156
:1026C000B933B833B733B633B99FB9BDB98FFF0F3C
:1026D000F5D79FC100F0000E016E026E036EBEC200
:1026E00004F0BFC205F0C0C206F0C1C207F061EC41
:1026F00009F00B0E086E00C004F001C005F002C026
:1027000006F003C007F0085009E007320632053230
:102710000432079E07BC078EFF0FF6D7000E042475
:10272000006E800E0520016E000E0620026E000E67
:102730000720036EB6C204F0B7C205F0B8C206F0B7
:10274000B9C207F061EC09F00A0E086E00C004F08F
:1027500001C005F002C006F003C007F0085009E010
:102760000732063205320432079E07BC078EFF0F80
:10277000F6D7000E0426000E0522200E0622000EBB
:1027800007229DC100F09EC101F0000E01019EBF15
:10279000FF0E026E036E61EC09F0000E0024056E60
:1027A000200E0120066E000E0220076E000E032090
:1027B000086E0E0E046E05C000F006C001F007C0E2
:1027C00002F008C003F0045009E003320232013283
:1027D0000032039E03BC038EFF0FF6D7BAC204F08B
:1027E000BBC205F0BCC206F0BDC207F061EC09F047
:1027F00000C0B6F201C0B7F202C0B8F203C0B9F22D
:10280000B6C2B2F2B7C2B3F2B8C2B4F2B9C2B5F24C
:102810000F0E046EB6C200F0B7C201F0B8C202F0EB
:10282000B9C203F0045009E003320232013200322F
:10283000039E03BC038EFF0FF6D700C004F001C057
:1028400005F002C006F003C007F061EC09F0070EC6
:10285000086E00C004F001C005F002C006F003C01D
:1028600007F0085009E00732063205320432079EAD
:1028700007BC078EFF0FF6D79CC100F0000E016E5B
:10288000026E036E61EC09F0040E046E00C005F0E8
:1028900001C006F002C007F003C008F0045009E0D0
:1028A0000832073206320532089E08BC088EFF0F38
:1028B000F6D7B6C201F0B7C202F0B8C203F0B9C28F
:1028C00004F00550015E0650025A0750035A0850A2
:1028D000045A01C0B2F202C0B3F203C0B4F204C0A1
:1028E000B5F2800E0418006E800E005C08E1000E48
:1028F000035C05E1000E025C02E1000E015C06E2F1
:102900000201AA6BAB6BAC6BAD6B08D0B2C2AAF282
:10291000B3C2ABF2B4C2ACF2B5C2ADF20201AAC20C
:10292000B2F2ABC2B3F2ACC2B4F2ADC2B5F2800E39
:10293000190A006E800EAD19005C08E1AC51000868
:1029400005E1AB51000802E1AA51000809E2000EBE
:10295000AE6F000EAF6F000EB06F190EB16F08D0E2
:10296000B2C2AEF2B3C2AFF2B4C2B0F2B5C2B1F20B
:10297000AEC2B2F2AFC2B3F2B0C2B4F2B1C2B5F2FB
:102980000C0E046EAEC200F0AFC201F0B0C202F095
:10299000B1C203F0045009E00332023201320032C6
:0C29A000039E03BC038EFF0FF6D712004D
:1029AC00030E006E80C109F081C10AF082C10BF0E8
:1029BC0083C10CF0005009E00C320B320A320932A0
:1029CC000C9E0CBC0C8EFF0FF6D784C105F085C194
:1029DC0006F0000E076E086E05C000F006C001F090
:1029EC0007C002F008C003F0003600900136023632
:1029FC00033609C004F00AC005F00BC006F00CC089
:102A0C0007F00050045E0150055A0250065A03505C
:102A1C00075A86C100F087C101F0000E010187BF83
:102A2C00FF0E026E036E61EC09F00B0E046E00C01B
:102A3C00AAF201C0ABF202C0ACF203C0ADF204507A
:102A4C000AE00201AD33AC33AB33AA33AD9FADBD5D
:102A5C00AD8FFF0FF5D7040E006E80C10CF081C155
:102A6C000DF082C10EF083C10FF0005009E00F325F
:102A7C000E320D320C320F9E0FBC0F8EFF0FF6D79D
:102A8C0084C100F085C101F0000E026E036E0CC013
:102A9C0008F00DC009F00EC00AF00FC00BF000508A
:102AAC00085E0150095A02500A5A03500B5A84C14D
:102ABC0004F085C105F0000E066E076E0CC000F028
:102ACC000DC001F00EC002F00FC003F00450005E08
:102ADC000550015A0650025A0750035A08C004F018
:102AEC0009C005F00AC006F00BC007F061EC09F054
:102AFC000C0E086E00C004F001C005F002C006F018
:102B0C0003C007F0085009E00732063205320432E0
:102B1C00079E07BC078EFF0FF6D788C100F089C14E
:102B2C0001F0000E010189BFFF0E026E036E61EC15
:102B3C0009F00E0E086E00C004F001C005F002C0D2
:102B4C0006F003C007F0085009E0073206320532E0
:102B5C000432079E07BC078EFF0FF6D70450020104
:102B6C00AA25006E0550AB21016E0650AC21026EF9
:102B7C000750AD21036E00C0A5F101C0A6F102C043
:102B8C00A7F103C0A8F1050E046E000E056E066ECB
:102B9C00076E61EC09F0800E0024056E000E01201A
:102BAC00066E000E0220076E000E0320086E06C093
:102BBC0000F007C001F008C002F0000E08BEFF0EC6
:042BCC00036E120082
:102BD0000050086E0150006E0250016E0350026EEC
:102BE000036A0B6A0C6A9E0E036E0A6A02AE05EF58
:102BF00016F0081E001E011E021E082AD8B4002A64
:102C0000D8B4012AD8B4022A0A8E020E0C6E77ECD0
:042C100000F01200BE
:102C1400F20E0201D26FAAC2D3F2C9EC07F012007D
:102C2400C3EC07F01F0E00140201D36F050E016EF2
:102C3400AAC200F0015004E000360090FF0FFBD759
:0E2C44000050D313F40ED26FC9EC07F012004B
:102C52000201CA6BCB6BBE6BBF6BACC200F0ADC2E4
:102C620001F0AEC202F0010EAC27000EAD23AE237E
:102C720000C0F6FF01C0F7FF02C0F8FF0900F5CF60
:102C820000F000C0BBF20052D8B439EF26F0BB51BD
:102C9200250A0BE0AAC2E1FFABC2E2FFBBC2E6FF1C
:102CA200AA4BAB2BCA4BCB2BD8D7BC6BBD6BBE6B25
:102CB200BF6B23D0BE87010EAC27000EAD23AE231F
:102CC20059D0BE81010EAC27000EAD23AE2352D0E7
:102CD200BE83010EAC27000EAD23AE234BD0BF87BF
:102CE200010EAC27000EAD23AE2344D0BE85010EEB
:102CF200AC27000EAD23AE233DD0ACC2F6FFADC271
:102D0200F7FFAEC2F8FF0900F5CF01F001502D0A1E
:102D1200D1E0ACC2F6FFADC2F7FFAEC2F8FF0900C8
:102D2200F5CF01F00150200ACCE0ACC2F6FFADC2F3
:102D3200F7FFAEC2F8FF0900F5CF01F001502B0AF0
:102D4200C7E0ACC2F6FFADC2F7FFAEC2F8FF0900A2
:102D5200F5CF01F00150230AC2E0ACC2F6FFADC2CA
:102D6200F7FFAEC2F8FF0900F5CF01F00150300ABB
:102D7200BDE001D09ED7BEA301D0BE91BEA701D0B7
:102D8200BE95ACC2F6FFADC2F7FFAEC2F8FF0900B6
:102D9200F5CF00F0000E016E00C0D2F22BEC0FF066
:102DA200005236E0BC6BBD6BBCC200F0BDC201F08C
:102DB2000A0E046E000E056E1FEC0CF0ACC2F6FF9C
:102DC200ADC2F7FFAEC2F8FF0900F5CF02F0025024
:102DD2000024BC6F000E0120BD6F300EBC5F000EE0
:102DE200BD5B010EAC27000EAD23AE23ACC2F6FFD5
:102DF200ADC2F7FFAEC2F8FF0900F5CF00F0000E3A
:102E0200016E00C0D2F22BEC0FF00052CDE133D0B4
:102E1200ACC2F6FFADC2F7FFAEC2F8FF0900F5CFB4
:102E220001F001502A0A27E1AFC2E9FFB0C2EAFF6E
:102E3200EECF00F0EECF01F000C0E9FF01C0EAFFE3
:102E4200EECFBCF2EECFBDF2AFC2E9FFB0C2EAFFF5
:102E5200020EEE24006E000EEE20016EAFC2E1FF04
:102E6200B0C2E2FF00C0E6FF01C0E6FF010EAC27E0
:102E7200000EAD23AE23ACC2F6FFADC2F7FFAEC269
:102E8200F8FF0900F5CF01F001502E0A70E1010EA2
:102E9200AC27000EAD23AE23ACC2F6FFADC2F7FFE6
:102EA200AEC2F8FF0900F5CF01F001502A0A28E16D
:102EB200AFC2E9FFB0C2EAFFEECF00F0EECF01F001
:102EC20000C0E9FF01C0EAFFEECFB9F2EECFBAF2DD
:102ED200AFC2E9FFB0C2EAFF020EEE24006E000E9E
:102EE200EE20016EAFC2E1FFB0C2E2FF00C0E6FF1A
:102EF20001C0E6FF010EAC27000EAD23AE2336D093
:102F0200B96BBA6BACC2F6FFADC2F7FFAEC2F8FF47
:102F12000900F5CF00F0000E016E00C0D2F22BECDA
:102F22000FF0005223E0B9C200F0BAC201F00A0E5B
:102F3200046E000E056E1FEC0CF0ACC2F6FFADC2C3
:102F4200F7FFAEC2F8FF0900F5CF02F002500024ED
:102F5200B96F000E0120BA6F300EB95F000EBA5B76
:102F6200010EAC27000EAD23AE23CCD703D0B96B34
:102F7200BA6BBF89ACC200F0ADC201F0AEC202F0C2
:102F8200010EAC27000EAD23AE2300C0F6FF01C038
:102F9200F7FF02C0F8FF0900F5CFBBF2F9D0CAC2B1
:102FA20000F0CBC201F03DEF26F0BE89E3D7BF852A
:102FB2002ED1BE8BBF812BD1BF8329D1BE8D27D10C
:102FC20026D1BE8BBE8F23D1AFC2E9FFB0C2EAFFCA
:102FD200EECF00F0EECF01F000C0E9FF01C0EAFF42
:102FE200EECFC6F2EECFC7F2AFC2E9FFB0C2EAFF40
:102FF200020EEE24006E000EEE20016EAFC2E1FF63
:10300200B0C2E2FF00C0E6FF01C0E6FF000EC71932
:1030120002E1000EC61904E1260EC66F000EC76F4C
:10302200C86BC96BC851C625E96EC951C721EA6E82
:10303200EE520BE0010EC825006E000EC921016E92
:1030420000C0C8F201C0C9F2EDD7B951BA110AE005
:10305200C951BA5D02E1C851B95D04E2B9C2C8F210
:10306200BAC2C9F2BD51C95D02E1BC51C85D05E2F7
:10307200C851BC5FC951BD5B02D0BC6BBD6BBEB752
:1030820016D0BCC200F0BDC201F0010EBC5F000E42
:10309200BD5B005001100BE0AAC2E1FFABC2E2FF30
:1030A200200EE66EAA4BAB2BCA4BCB2BEAD7C8C27B
:1030B20002F0C9C203F0010EC85D006E000EC959CC
:1030C200016E00C0C8F201C0C9F20250031019E03B
:1030D200C6C2E9FFC7C2EAFFAAC2E1FFABC2E2FF72
:1030E200EECFE6FFAA4BAB2B010EC625006E000EFB
:1030F200C721016E00C0C6F201C0C7F2CA4BCB2B7A
:10310200D6D7BEA716D0BCC200F0BDC201F0010ED8
:10311200BC5F000EBD5B005001100BE0AAC2E1FFD4
:10312200ABC2E2FF200EE66EAA4BAB2BCA4BCB2BF7
:10313200EAD793D5AFC2E9FFB0C2EAFFEECF00F003
:10314200EECF01F000C0E9FF01C0EAFFEECFBBF213
:10315200AFC2E9FFB0C2EAFF020EEE24006E000E1B
:10316200EE20016EAFC2E1FFB0C2E2FF00C0E6FF97
:1031720001C0E6FFBB0EC66F020EC76F010EC86F1D
:10318200000EC96F62D7C00EBE13000EBF133FD030
:10319200BB51000AD8B403D7BB516C0AD8B405D7C7
:1031A200BB514C0AD8B401D7BB51660AD8B4FFD67A
:1031B200BB51450AD8B4FDD6BB51650AD8B4FAD67C
:1031C200BB51670AD8B4F8D6BB516F0AD8B4F6D649
:1031D200BB51640AD8B4F4D6BB51690AD8B4F0D64C
:1031E200BB51700AD8B4EDD6BB51580AD8B4E9D64F
:1031F200BB51780AD8B4E6D6BB51730AD8B4E4D628
:10320200BB51630A97E0BB51750ABDE0B3D7000E0C
:10321200BE15006EBF51070B016E00500110D8B4ED
:10322200E0EF21F0BFA904D0060EB96F000EBA6F0D
:10323200AFC2E9FFB0C2EAFFEECF00F0EECF01F07D
:1032420000C0E9FF01C0EAFFEECFC0F2EECFC1F24B
:10325200EECFC2F2EECFC3F2AFC2E9FFB0C2EAFFD5
:10326200040EEE24006E000EEE20016EAFC2E1FFEE
:10327200B0C2E2FF00C0E6FF01C0E6FF046A056AD1
:10328200066A076AC0C200F0C1C201F0C2C202F0FF
:10329200C3C203F0B8EC0BF0010ED8B0000E006E02
:1032A200005205E0C27F030EBE13000EBF13C46BB3
:1032B200C56BC0C200F0C1C201F0C2C202F0C3C2FB
:1032C20003F0046A056A066A076AA1EC0BF0000EB5
:1032D200D8A4010E006E0052D8B48AD0C3C200F046
:1032E200016A026A036AFF0E0016000E01167E0EC4
:1032F200005E000E015A00C0C4F201C0C5F2010E08
:10330200005E000E015A00C0C4F201C0C5F2030EF5
:10331200046E000E056E1FEC0CF000C0C4F201C07A
:10332200C5F20A0E046E000E056E60EC07F000C0D6
:10333200C4F201C0C5F2800E0118026E800E025C5A
:1033420002E1000E005C05E2010E0201C45F000E04
:10335200C55B0201C4510008D26F47EC0CF0C0C239
:1033620004F0C1C205F0C2C206F0C3C207F065ECA8
:1033720005F000C0C6F201C0C7F202C0C8F203C025
:10338200C9F2000E046E000E056E000E066E7F0E70
:10339200076EC6C200F0C7C201F0C8C202F0C9C2BD
:1033A20003F0B8EC0BF0010ED8B0000E006E005224
:1033B20005E0010EC45F000EC55B1AD0000E046E5C
:1033C200000E056E200E066E820E076EC6C200F05B
:1033D200C7C201F0C8C202F0C9C203F0B8EC0BF0D8
:1033E200000ED8B0010E006E005202E0C44BC52B95
:1033F200800E006E800EC519005C02E1C451000807
:1034020003E3010EBB6F02D0C4C2BBF2BFB118D03E
:10341200BFA315D0800EC519006E7F0E005C02E1BD
:10342200FC0EC45D0BE3800EC519006E800EBA1946
:10343200005C02E1B951C45D01E201D001D0F1D3D7
:10344200B951BA1106E0BFA304D0010EB95F000E54
:10345200BA5B000E006EBA51005C02E1B951080875
:1034620003E2080EBB6F02D0B9C2BBF2C0C200F0C9
:10347200C1C201F0C2C202F0C3C203F0046A056A0B
:10348200066A076AA1EC0BF0000ED8A4010E006ECA
:103492000052D8B44BD1C4C2D2F247EC0CF000C0F7
:1034A20004F001C005F002C006F003C007F0C0C27C
:1034B20000F0C1C201F0C2C202F0C3C203F0A3EC29
:1034C20006F000C0C0F201C0C1F202C0C2F203C0E5
:1034D200C3F20201BB510008D26F47EC0CF000C0EE
:1034E20004F001C005F002C006F003C007F0C0C23C
:1034F20000F0C1C201F0C2C202F0C3C203F0A3ECE9
:1035020006F000C0CCF201C0CDF202C0CEF203C080
:10351200CFF2CCC2C0F2CDC2C1F2CEC2C2F2CFC291
:10352200C3F2CCC200F0CDC201F0CEC202F0CFC2D3
:1035320003F000EC0BF090EC06F000C004F001C0C8
:1035420005F002C006F003C007F0CCC200F0CDC205
:1035520001F0CEC202F0CFC203F0DFEC07F0000EA2
:10356200046E000E056E000E066E7E0E076EB8EC3F
:103572000BF0000ED8B0010E006E00521AE0C0C26D
:1035820000F0C1C201F0C2C202F0C3C203F0000ED9
:10359200046E000E056E000E066E7E0E076E13ECB4
:1035A20003F000C0C0F201C0C1F202C0C2F203C007
:1035B200C3F2C0C200F0C1C201F0C2C202F0C3C273
:1035C20003F000EC0BF00201BB51010F096E0A6A15
:1035D200000E0A2209C004F00AC005F0000E0ABE5D
:1035E200FF0E066E076E0436049005360636073661
:1035F20004360490053606360736CD0E0424F66EE0
:10360200580E0520F76E000E0620F86E0900F5CF61
:1036120005F00900F5CF06F00900F5CF07F0090023
:10362200F5CF08F00850035C08E10750025C05E1A1
:103632000650015C02E10550005C1EE30201C0C2BB
:1036420000F0C1C201F0C2C202F0C3C203F0CD0E4B
:10365200046ECC0E056E4C0E066E7B0E076E65EC8C
:1036620005F000C0C0F201C0C1F202C0C2F203C044
:10367200C3F2C44BC52B5AD0C0C200F0C1C201F084
:10368200C2C202F0C3C203F000EC0BF0BBC204F0F2
:10369200000E056E066E076E043604900536063679
:1036A200073604360490053606360736CD0E042456
:1036B200F66E580E0520F76E000E0620F86E090011
:1036C200F5CF05F00900F5CF06F00900F5CF07F0B8
:1036D2000900F5CF08F00850035C08E10750025CCE
:1036E20005E10650015C02E10550005C1FE20201A7
:1036F200C0C200F0C1C201F0C2C202F0C3C203F0F4
:10370200000E046E000E056E200E066E820E076E0F
:1037120065EC05F000C0C0F201C0C1F202C0C2F205
:1037220003C0C3F2010EC45F000EC55B0201BFA35A
:1037320093D0BFB791D0800E000A006E800EBA19E6
:10374200005C02E1B9510A0804E20A0EB96F000EE8
:10375200BA6FC0C200F0C1C201F0C2C202F0C3C25D
:1037620003F000EC0BF000C0C6F201C0C7F202C0C9
:10377200C8F203C0C9F2C651C711C811C91142E04B
:103782000A0E046E000E056E066E076EC6C200F0CB
:10379200C7C201F0C8C202F0C9C203F08AEC09F044
:1037A20008C000F009C001F00AC002F00BC003F02B
:1037B200000E046E031808E10450021805E10450DB
:1037C200011802E10050000A1DE1010EB95F000E6E
:1037D200BA5B0A0E046E000E056E066E076EC6C256
:1037E20000F0C7C201F0C8C202F0C9C203F08AECFD
:1037F20009F000C0C6F201C0C7F202C0C8F203C09D
:10380200C9F2B9D7800EBA19006E800E005C02E1CF
:10381200BB51B95D21E2B951BB5DD26F47EC0CF0EF
:1038220000C004F001C005F002C006F003C007F0BA
:10383200C0C200F0C1C201F0C2C202F0C3C203F0B2
:10384200A3EC06F000C0C0F201C0C1F202C0C2F295
:1038520003C0C3F2B9C2BBF2050E0201B925006E64
:10386200000EBA21016E0050BC5F0150BD5BB95120
:10387200BA1103E1BFB701D004D0010EBC5F000E44
:10388200BD5B030EBE15006EBFC201F0000E011635
:103892000050011004E0010EBC5F000EBD5BBEA52E
:1038A20039D0BEA312D0BEA103D02D0EB16F02D06B
:1038B2002B0EB16FAAC2E1FFABC2E2FFB1C2E6FFBB
:1038C200AA4BAB2BCA4BCB2B0CD0BEA10AD0AAC29F
:1038D200E1FFABC2E2FF200EE66EAA4BAB2BCA4B56
:1038E200CB2B800E006E800EBD19005C02E1BC5134
:1038F20000080FE2AAC2E1FFABC2E2FF300EE66EA1
:10390200AA4BAB2BCA4BCB2B010EBC5F000EBD5B8F
:10391200E8D73AD0BEB718D0800E006E800EBD191F
:10392200005C02E1BC5100080FE2AAC2E1FFABC297
:10393200E2FF200EE66EAA4BAB2BCA4BCB2B010E3D
:10394200BC5F000EBD5BE8D7BEA312D0BEA103D000
:103952002D0EB26F02D02B0EB26FAAC2E1FFABC224
:10396200E2FFB2C2E6FFAA4BAB2BCA4BCB2B0CD069
:10397200BEA10AD0AAC2E1FFABC2E2FF200EE66EF0
:10398200AA4BAB2BCA4BCB2BC0C200F0C1C201F079
:10399200C2C202F0C3C203F000EC0BF000C0C6F2D8
:1039A20001C0C7F202C0C8F203C0C9F2BBC200F034
:1039B200000E016E026E036E003600900136023672
:1039C200033600360090013602360336CD0E00244F
:1039D200F66E580E0120F76E000E0220F86E0900F6
:1039E200F5CF04F00900F5CF05F00900F5CF06F098
:1039F2000900F5CF07F0C6C200F0C7C201F0C8C285
:103A020002F0C9C203F08AEC09F0300E0026AAC205
:103A1200E1FFABC2E2FF00C0E6FFAA4BAB2BCA4BF1
:103A2200CB2BB951BA1103E1BFB701D06FD0AAC2F3
:103A3200E1FFABC2E2FF2E0EE66EAA4BAB2BCA4BE6
:103A4200CB2BBB51B95F000EBA5BBB534DE0BB073A
:103A5200BBC200F0000E016E026E036E00360090D3
:103A6200013602360336003600900136023603363E
:103A7200CD0E0024F66E580E0120F76E000E0220C5
:103A8200F86E0900F5CF04F00900F5CF05F0090042
:103A9200F5CF06F00900F5CF07F0C6C200F0C7C2A5
:103AA20001F0C8C202F0C9C203F08AEC09F00A0EA2
:103AB200046E000E056E066E076E8AEC09F008C0F1
:103AC20000F009C001F00AC002F00BC003F0300E92
:103AD2000026AAC2E1FFABC2E2FF00C0E6FFAA4B8A
:103AE200AB2BCA4BCB2BB1D7B951BA110FE0AAC23B
:103AF200E1FFABC2E2FF300EE66EAA4BAB2BCA4B24
:103B0200CB2B010EB95F000EBA5BEED7BEAB0BD06A
:103B1200AAC2E1FFABC2E2FF450EE66EAA4BAB2B97
:103B2200CA4BCB2B0AD0AAC2E1FFABC2E2FF650EA1
:103B3200E66EAA4BAB2BCA4BCB2B800EC519006E7F
:103B4200800E005C02E1000EC45D11E2C451000867
:103B5200C46FC551000EC557AAC2E1FFABC2E2FF56
:103B62002D0EE66EAA4BAB2BCA4BCB2B0AD0AAC2A8
:103B7200E1FFABC2E2FF2B0EE66EAA4BAB2BCA4BA8
:103B8200CB2B0A0E046E000E056EC4C200F0C5C235
:103B920001F060EC07F0300E0026AAC2E1FFABC2D2
:103BA200E2FF00C0E6FF0201AA4BAB2BCA4BCB2BB4
:103BB2000A0E046E000E056EC4C200F0C5C201F00A
:103BC20060EC07F008C000F009C001F0300E0026DA
:103BD200AAC2E1FFABC2E2FF00C0E6FF0201AA4BAC
:103BE200AB2BCA4BCB2BBEA71AD0800E006E800E19
:103BF200BD19005C02E1BC51000811E2AAC2E1FF5A
:103C0200ABC2E2FF200EE66EAA4BAB2BCA4BCB2B0C
:103C1200010EBC5F000EBD5BBC51BD11EFE12EEF8A
:103C220016F0BFA3F3D0800EC519006E800E005CA3
:103C320002E1000EC45D0AE2010EC45D006E000ED8
:103C4200C559016E0050B95F0150BA5BC0C200F0A5
:103C5200C1C201F0C2C202F0C3C203F000EC0BF019
:103C620000C0C6F201C0C7F202C0C8F203C0C9F266
:103C7200010EBB6FBB510A0A34E0BBC200F0000E5A
:103C8200016E026E036E0036009001360236033674
:103C920000360090013602360336CD0E0024F66E51
:103CA200580E0120F76E000E0220F86E0900F5CFC3
:103CB20001F00900F5CF02F00900F5CF03F0090089
:103CC200F5CF04F00450C95D08E10350C85D05E179
:103CD2000250C75D02E10150C65D01E202D0BB2B7A
:103CE200C9D7BB51B95DD06F000EBA59D16FD0C2DE
:103CF200B9F2D1C2BAF2C6C200F0C7C201F0C8C25C
:103D020002F0C9C203F090EC06F000C004F001C05A
:103D120005F002C006F003C007F0C0C200F0C1C245
:103D220001F0C2C202F0C3C203F0DFEC07F000C030
:103D3200CCF201C0CDF202C0CEF203C0CFF2D0C2AB
:103D4200D2F247EC0CF0CCC204F0CDC205F0CEC2E8
:103D520006F0CFC207F065EC05F0000E046E000E0F
:103D6200056E000E066E7E0E076E13EC03F000EC7D
:103D72000BF000C0C6F201C0C7F202C0C8F203C015
:103D8200C9F2B951BA1142E00A0E046E000E056E74
:103D9200066E076EC6C200F0C7C201F0C8C202F0CA
:103DA200C9C203F08AEC09F008C000F009C001F0B2
:103DB2000AC002F00BC003F0000E046E031808E103
:103DC2000450021805E10450011802E10050000AF3
:103DD2001DE10A0E046E000E056E066E076EC6C267
:103DE20000F0C7C201F0C8C202F0C9C203F08AECF7
:103DF20009F000C0C6F201C0C7F202C0C8F203C097
:103E0200C9F2010EB95F000EBA5BBBD7800E006E1D
:103E1200800EBA19005C02E1B9510C0816E3B9C26E
:103E2200D2F2E3EC07F0C0C204F0C1C205F0C2C294
:103E320006F0C3C207F013EC03F000C0C0F201C0E9
:103E4200C1F202C0C2F203C0C3F2C0C200F0C1C2DA
:103E520001F0C2C202F0C3C203F0046A056A066A34
:103E6200076AA1EC0BF0000ED8A4010E006E0052FE
:103E7200D8B477D0C0C200F0C1C201F0C2C202F011
:103E8200C3C203F000EC0BF0000E046E031808E14D
:103E92000450021805E10450011802E10050000A22
:103EA20060E1800E006E800EC519005C02E1C45113
:103EB200010857E2C4C2D2F247EC0CF000C004F091
:103EC20001C005F002C006F003C007F0C0C200F056
:103ED200C1C201F0C2C202F0C3C203F0A3EC06F0F9
:103EE2005F0E046E700E056E090E066E810E076E71
:103EF200B8EC0BF0010ED8B0000E006E005206E0D6
:103F0200090E0201C45F000EC55B05D00201080E56
:103F1200C45F000EC55BC4C2D2F247EC0CF000C015
:103F220004F001C005F002C006F003C007F0C0C2F1
:103F320000F0C1C201F0C2C202F0C3C203F0A3EC9E
:103F420006F000EC0BF000C0C6F201C0C7F202C0DE
:103F5200C8F203C0C9F20201C06BC16BC26BC36B72
:103F620038D0C0C200F0C1C201F0C2C202F0C3C266
:103F720003F000EC0BF000C0C6F201C0C7F202C0B1
:103F8200C8F203C0C9F2C6C200F0C7C201F0C8C27B
:103F920002F0C9C203F090EC06F000C004F001C0C8
:103FA20005F002C006F003C007F0C0C200F0C1C2B3
:103FB20001F0C2C202F0C3C203F0DFEC07F000C09E
:103FC200C0F201C0C1F202C0C2F203C0C3F2C46BAC
:103FD200C56B010EBB6FBB510A0A34E0BBC200F0D5
:103FE200000E016E026E036E00360090013602363C
:103FF200033600360090013602360336CD0E002419
:10400200F66E580E0120F76E000E0220F86E0900BF
:10401200F5CF01F00900F5CF02F00900F5CF03F06A
:104022000900F5CF04F00450C95D08E10350C85DF2
:1040320005E10250C75D02E10150C65D01E202D016
:10404200BB2BC9D7BB51B925006E000EBA21016E38
:10405200C4510026C55101220050BC5F0150BD5B16
:10406200BFB704D0B951BA1101E104D0010EBC5F4F
:10407200000EBD5B030EBE15006EBFC201F0000E46
:1040820001160050011004E0010EBC5F000EBD5B82
:10409200BEA539D0BEA312D0BEA103D02D0EB36FE0
:1040A20002D02B0EB36FAAC2E1FFABC2E2FFB3C2D2
:1040B200E6FFAA4BAB2BCA4BCB2B0CD0BEA10AD02E
:1040C200AAC2E1FFABC2E2FF200EE66EAA4BAB2B07
:1040D200CA4BCB2B800E006E800EBD19005C02E134
:1040E200BC5100080FE2AAC2E1FFABC2E2FF300EF0
:1040F200E66EAA4BAB2BCA4BCB2B010EBC5F000E5C
:10410200BD5BE8D73AD0BEB718D0800E006E800EE5
:10411200BD19005C02E1BC5100080FE2AAC2E1FF36
:10412200ABC2E2FF200EE66EAA4BAB2BCA4BCB2BE7
:10413200010EBC5F000EBD5BE8D7BEA312D0BEA1CC
:1041420003D02D0EB46F02D02B0EB46FAAC2E1FFC2
:10415200ABC2E2FFB4C2E6FFAA4BAB2BCA4BCB2BDE
:104162000CD0BEA10AD0AAC2E1FFABC2E2FF200E70
:10417200E66EAA4BAB2BCA4BCB2BBBC200F0BB07E4
:1041820000524CE0BBC200F0000E016E026E036EE4
:1041920000360090013602360336003600900136B2
:1041A20002360336CD0E0024F66E580E0120F76E4D
:1041B200000E0220F86E0900F5CF04F00900F5CFD9
:1041C20005F00900F5CF06F00900F5CF07F0C6C2E9
:1041D20000F0C7C201F0C8C202F0C9C203F08AEC03
:1041E20009F00A0E046E000E056E066E076E8AEC6A
:1041F20009F008C000F009C001F00AC002F00BC0CB
:1042020003F0300E0026AAC2E1FFABC2E2FF00C0FB
:10421200E6FFAA4BAB2BCA4BCB2BAFD7800E006E5F
:10422200800EC519005C02E1C45100080FE2AAC267
:10423200E1FFABC2E2FF300EE66EAA4BAB2BCA4BDC
:10424200CB2B010EC45F000EC55BE8D7800E000ABF
:10425200006E800EBA19005C02E1B951080803E24F
:10426200080EBB6F02D0B9C2BBF2BB51B95F000EE0
:10427200BA5BBB5303E1BFB701D00AD0AAC2E1FFC8
:10428200ABC2E2FF2E0EE66EAA4BAB2BCA4BCB2B78
:10429200BBC2D2F247EC0CF0C0C204F0C1C205F0BE
:1042A200C2C206F0C3C207F065EC05F0F8EC05F0F7
:1042B20000C0C6F201C0C7F202C0C8F203C0C9F210
:1042C200BB534DE0BB07BBC200F0000E016E026E95
:1042D200036E003600900136023603360036009037
:1042E200013602360336CD0E0024F66E580E01203A
:1042F200F76E000E0220F86E0900F5CF04F00900F7
:10430200F5CF05F00900F5CF06F00900F5CF07F06B
:10431200C6C200F0C7C201F0C8C202F0C9C203F0AF
:104322008AEC09F00A0E046E000E056E066E076E28
:104332008AEC09F008C000F009C001F00AC002F0DE
:104342000BC003F0300E0026AAC2E1FFABC2E2FFAF
:1043520000C0E6FFAA4BAB2BCA4BCB2BB1D7B9514E
:10436200BA110FE0AAC2E1FFABC2E2FF300EE66E65
:10437200AA4BAB2BCA4BCB2B010EB95F000EBA5B1B
:10438200EED7BEA71AD0800E006E800EBD19005C5B
:1043920002E1BC51000811E2AAC2E1FFABC2E2FF96
:1043A200200EE66EAA4BAB2BCA4BCB2B010EBC5F89
:1043B200000EBD5BBC51BD11EFE12EEF16F0C00E39
:1043C200BE15016EBFC202F0000E0216000E0218E8
:1043D20002E1000E0118D8A480D0BEA927D0AFC236
:1043E200E9FFB0C2EAFFEECF00F0EECF01F000C06D
:1043F200E9FF01C0EAFFEECFC6F2EECFC7F2EECF81
:10440200C8F2EECFC9F2AFC2E9FFB0C2EAFF040EB2
:10441200EE24006E000EEE20016EAFC2E1FFB0C2CC
:10442200E2FF00C0E6FF01C0E6FF2FD0AFC2E9FF06
:10443200B0C2EAFFEECF00F0EECF01F000C0E9FF1C
:1044420001C0EAFFEECF00F0EECF01F0000E01BE98
:10445200FF0E026E036E00C0C6F201C0C7F202C0B8
:10446200C8F203C0C9F2AFC2E9FFB0C2EAFF020E4E
:10447200EE24006E000EEE20016EAFC2E1FFB0C26C
:10448200E2FF00C0E6FF01C0E6FF800EC919006E20
:10449200800E005C08E1000EC85D05E1000EC75DFC
:1044A20002E1000EC65D18E2030EBE13000EBF133A
:1044B200006A016A026A036AC651005EC751015A64
:1044C200C851025AC951035A00C0C6F201C0C7F20C
:1044D20002C0C8F203C0C9F24ED0BEA927D0AFC2F3
:1044E200E9FFB0C2EAFFEECF00F0EECF01F000C06C
:1044F200E9FF01C0EAFFEECFC6F2EECFC7F2EECF80
:10450200C8F2EECFC9F2AFC2E9FFB0C2EAFF040EB1
:10451200EE24006E000EEE20016EAFC2E1FFB0C2CB
:10452200E2FF00C0E6FF01C0E6FF25D0AFC2E9FF0F
:10453200B0C2EAFFEECF00F0EECF01F000C0E9FF1B
:1045420001C0EAFFEECFC6F2EECFC7F2000EC86F8F
:10455200C96FAFC2E9FFB0C2EAFF020EEE24006EDD
:10456200000EEE20016EAFC2E1FFB0C2E2FF00C05A
:10457200E6FF01C0E6FF000EBA1902E1000EB9190A
:104582000FE1000E006EC91908E10050C81905E1DB
:104592000050C71902E1C651000A02E1B94BBA2B19
:1045A200C00EBE15006E00C005F0AED0010EBB6F8E
:1045B200BB510A0A34E0BBC200F0000E016E026E6B
:1045C200036E003600900136023603360036009044
:1045D200013602360336CD0E0024F66E580E012047
:1045E200F76E000E0220F86E0900F5CF01F0090007
:1045F200F5CF02F00900F5CF03F00900F5CF04F082
:104602000450C95D08E10350C85D05E10250C75D71
:1046120002E10150C65D01E202D0BB2BC9D782D0B4
:10462200010EBB6FBB51080A34E0BBC200F0000EA2
:10463200016E026E036E00360090013602360336BA
:1046420000360090013602360336F50E0024F66E6F
:10465200580E0120F76E000E0220F86E0900F5CF09
:1046620001F00900F5CF02F00900F5CF03F00900CF
:10467200F5CF04F00450C95D08E10350C85D05E1BF
:104682000250C75D02E10150C65D01E202D0BB2BC0
:10469200C9D748D0010EBB6FBB510C0A34E0BBC274
:1046A20000F0000E016E026E036E003600900136BD
:1046B20002360336003600900136023603369D0E6E
:1046C2000024F66E580E0120F76E000E0220F86EDE
:1046D2000900F5CF01F00900F5CF02F00900F5CF8E
:1046E20003F00900F5CF04F00450C95D08E103505E
:1046F200C85D05E10250C75D02E10150C65D01E2FD
:1047020002D0BB2BC9D70ED00550000AD8B44ED761
:104712000550C00AD8B44AD70550800A81E0055036
:10472200400AB8E0800E006E800EBA19005C02E109
:10473200B951BB5D03E2B9C2BBF20DD0800EBA190A
:10474200006E800E005C02E1BB51B95D04E2BBC2A7
:10475200B9F2000EBA6FBC51BD110EE0030EBE15C8
:10476200006EBFC201F0000E01160050011004E0FD
:10477200010EBC5F000EBD5B800EBA19006E800E8A
:10478200BD19005C02E1BC51B95D05E2B951BC5FE3
:10479200BA51BD5B02D0BC6BBD6BC40EBE15016EBF
:1047A200BF51080B026E0250080A02E1400E0118C6
:1047B20008E1BC51BD1104E0010EBC5F000EBD5BFF
:1047C2001CD0C00EBE15016EBF51080B026E025006
:1047D200080A02E1800E011810E1800E006E800EC0
:1047E200BD19005C02E1BC51020805E2020EBC5F89
:1047F200000EBD5B02D0BC6BBD6BBEA55DD0BEA37F
:1048020012D0BEA103D02D0EB56F02D02B0EB56F04
:10481200AAC2E1FFABC2E2FFB5C2E6FFAA4BAB2BD5
:10482200CA4BCB2B34D0BEA10BD0AAC2E1FFABC284
:10483200E2FF200EE66EAA4BAB2BCA4BCB2B27D046
:10484200C00EBE15016EBF51080B026E0250080A5F
:1048520002E1800E01181BE1AAC2E1FFABC2E2FF36
:10486200300EE66EAA4BAB2BCA4BCB2BBEAB03D0A2
:10487200580EB66F02D0780EB66FAAC2E1FFABC275
:10488200E2FFB6C2E6FFAA4BAB2BCA4BCB2BBC5105
:10489200BD1111E0AAC2E1FFABC2E2FF300EE66E2B
:1048A200AA4BAB2BCA4BCB2B010EBC5F000EBD5BE0
:1048B200BC51BD11EFE174D0BC51BD1113E0BEB7C4
:1048C20011D0AAC2E1FFABC2E2FF200EE66EAA4BF4
:1048D200AB2BCA4BCB2B010EBC5F000EBD5BBC5198
:1048E200BD11EFE1BEA312D0BEA103D02D0EB76F52
:1048F20002D02B0EB76FAAC2E1FFABC2E2FFB7C272
:10490200E6FFAA4BAB2BCA4BCB2B0CD0BEA10AD0D5
:10491200AAC2E1FFABC2E2FF200EE66EAA4BAB2BAE
:10492200CA4BCB2BC00EBE15016EBF51080B026ED7
:104932000250080A02E1400E01180BE1AAC2E1FF8F
:10494200ABC2E2FF300EE66EAA4BAB2BCA4BCB2BAF
:1049520027D0C00EBE15016EBF51080B026E025069
:10496200080A02E1800E01181BE1AAC2E1FFABC2F4
:10497200E2FF300EE66EAA4BAB2BCA4BCB2BBEAB83
:1049820003D0580EB86F02D0780EB86FAAC2E1FFFA
:10499200ABC2E2FFB8C2E6FFAA4BAB2BCA4BCB2B92
:1049A200800E006E800EBA19005C02E1B951BB5D47
:1049B2000BE2AAC2E1FFABC2E2FF300EE66EAA4BE7
:1049C200AB2BCA4BCB2BECD7B9C200F0BAC201F069
:1049D200010EB95F000EBA5B00500110D8B42AD1A3
:1049E200C00EBE15006E00C0CCF20AD1B9C200F0F2
:1049F200BAC201F0000EBABFFF0E026E036E00369D
:104A02000090013602360336003600900136023637
:104A12000336CD0E0024F66E580E0120F76E000EFE
:104A22000220F86E0900F5CF04F00900F5CF05F079
:104A32000900F5CF06F00900F5CF07F0C6C200F075
:104A4200C7C201F0C8C202F0C9C203F08AEC09F081
:104A52000A0E046E000E056E066E076E8AEC09F0F1
:104A620008C000F009C001F00AC002F00BC003F058
:104A7200300E0024BB6FD3D0BEAB45D0B9C200F01C
:104A8200BAC201F0000EBABFFF0E026E036E00360C
:104A920000900136023603360036009001360236A7
:104AA2000336F50E0024F66E580E0120F76E000E46
:104AB2000220F86E0900F5CF04F00900F5CF05F0E9
:104AC2000900F5CF06F00900F5CF07F0C6C200F0E5
:104AD200C7C201F0C8C202F0C9C203F08AEC09F0F1
:104AE2000F0E0016000E011602160316730E002496
:104AF200F66E590E0120F76E000E0220F86E0900C4
:104B0200F5CFBBF244D0B9C200F0BAC201F0000E38
:104B1200BABFFF0E026E036E0036009001360236F7
:104B2200033600360090013602360336F50E0024B5
:104B3200F66E580E0120F76E000E0220F86E090084
:104B4200F5CF04F00900F5CF05F00900F5CF06F026
:104B52000900F5CF07F0C6C200F0C7C201F0C8C213
:104B620002F0C9C203F08AEC09F00F0E0016000E23
:104B7200011602160316620E0024F66E590E01206B
:104B8200F76E000E0220F86E0900F5CFBBF247D097
:104B9200B9C200F0BAC201F0000EBABFFF0E026E37
:104BA200036E00360090013602360336003600905E
:104BB2000136023603369D0E0024F66E580E012091
:104BC200F76E000E0220F86E0900F5CF04F009001E
:104BD200F5CF05F00900F5CF06F00900F5CF07F093
:104BE200C6C200F0C7C201F0C8C202F0C9C203F0D7
:104BF2008AEC09F0070E0014BB6F300EBB270FD0F2
:104C0200CC51000AD8B4F2D6CC51C00AD8B4EED6F0
:104C1200CC51800AD8B430D7CC51400AB9E0AAC2EC
:104C2200E1FFABC2E2FFBBC2E6FFAA4BAB2BCA4B12
:104C3200CB2BCAD6BEA71AD0800E006E800EBD192D
:104C4200005C02E1BC51000811E2AAC2E1FFABC262
:104C5200E2FF200EE66EAA4BAB2BCA4BCB2B010E0A
:104C6200BC5F000EBD5BBC51BD11EFE12EEF16F033
:0A4C7200CAC200F0CBC201F012002C
:104C7C00C3EC07F00201AA510010D36FF40ED26FEF
:064C8C00C9EC07F0120064
:104C9200C3EC07F0E30E00140201D36FAAC200F0C6
:104CA20000360090003600900050D313F40ED26FFD
:064CB200C9EC07F012003E
:064CB80025EC0FF01200D4
:104CBE00460E0101406F000E416FDE0E426F020E76
:104CCE00436FB00E506F120E516F000E526F000EEA
:104CDE00536F380E4C6F170E4D6F000E4E6F000E49
:104CEE004F6FFF0E486FFF0E496F000E4A6F000E9A
:104CFE004B6FA88A900E9C6E98849892A4AA03D0AB
:084D0E00AACF00F0FBD7120050
:0A4D160085EC0FF0080E00161200E5
:104D2000AE0E0101586F000E596F000E5A6F000E43
:104D30005B6FE80E686F030E696F000E6A6F000EFE
:104D40006B6FD00E646F020E656F000E666F000E03
:104D5000676F780E606F040E616FD80E626F020E7F
:104D6000636F260E546F030E556FD80E566F020EEA
:104D7000576FEA0E446F000E456F000E466F000E2F
:104D8000476F959A959C8C9A8C9C958A958C6D9E74
:084D90006D9C380E6C6E1200E0
:104D9800F70E01016C6FF4EC01F0EC0E0201D86F14
:104DA80093EC01F06CC1D8F293EC01F068EC01F0DF
:104DB800ED0E0201D86F93EC01F00101A96BAA6B0B
:104DC800800EAA19006E800E005C02E1080EA95D33
:104DD80015E26C0EA925AB6F010EAA21AC6F010E6E
:104DE8000201D86F3CEC02F0ABC1E1FFACC1E2FFBD
:104DF80000C0E6FF0101A94BAA2BE2D7010EA925A5
:104E0800006E000EAA21016E6C0E0024AB6F010E1D
:104E18000120AC6F0201D86B3CEC02F0ABC1E1FFA2
:104E2800ACC1E2FF00C0E6FF73C130F1000E010122
:104E3800316F326F336F72C105F0000E066E076E68
:104E4800086E07C003F006C002F005C001F0006A52
:104E580000503013015031130250321303503313F2
:104E680071C180F1000E816F826F836F040E006E36
:104E7800005007E08333823381338033839FFF0FF1
:104E8800F8D770C105F0000E066E076E086E040EA6
:104E9800046E05C000F006C001F007C002F008C0AB
:104EA80003F0045007E0003600900136023603365E
:104EB800FF0FF8D70050801301508113025082135E
:104EC800035083136FC105F0000E066E076E086E5F
:104ED8000C0E046E05C000F006C001F007C002F019
:104EE80008C003F0045007E000360090013602368F
:104EF8000336FF0FF8D7005080130150811302507A
:104F08008213035083136EC12CF1000E2D6F2E6F88
:104F18002F6F040E006E005007E02F332E332D3311
:104F28002C332F9FFF0FF8D76DC105F0000E066ECA
:104F3800076E086E040E046E05C000F006C001F08E
:104F480007C002F008C003F0045007E000360090E4
:104F5800013602360336FF0FF8D700502C130150E4
:104F68002D1302502E1303502F136CC105F0000EA1
:104F7800066E076E086E0C0E046E05C000F006C0C3
:104F880001F007C002F008C003F0045007E0003643
:104F98000090013602360336FF0FF8D700502C1365
:0E4FA80001502D1302502E1303502F13120030
:104FB600890E0201D76FEDEC02F0000E016E00C003
:104FC60084F101C085F1880E0201D76FEDEC02F085
:104FD60000C0A9F184C103F0026A000E016E0250FE
:104FE60000260350012200C084F101C085F18B0E1A
:104FF6000201D76FEDEC02F0000E016E00C086F1E3
:1050060001C087F18A0E0201D76FEDEC02F000C0F5
:10501600A9F186C103F0026A000E016E0250002655
:105026000350012200C086F101C087F18D0E0201F6
:10503600D76FEDEC02F0000E016E00C088F101C0E2
:1050460089F18C0E0201D76FEDEC02F000C0A9F1D8
:1050560088C103F0026A000E016E0250002603505A
:10506600012200C088F101C089F18F0E0201D76FBD
:10507600EDEC02F0000E016E00C08AF101C08BF16A
:105086008E0E0201D76FEDEC02F000C0A9F18AC1C5
:1050960003F0026A000E016E025000260350012240
:1050A60000C08AF101C08BF1910E0201D76FEDECC1
:1050B60002F0000E016E00C08CF101C08DF1900E61
:1050C6000201D76FEDEC02F000C0A9F18CC103F02C
:1050D600026A000E016E025000260350012200C033
:1050E6008CF101C08DF1930E0201D76FEDEC02F049
:1050F600000E016E00C08EF101C08FF1920E02010A
:10510600D76FEDEC02F000C0A9F18EC103F0026A80
:10511600000E016E025000260350012200C08EF1DF
:1051260001C08FF1950E0201D76FEDEC02F0000E73
:10513600016E00C090F101C091F1940E0201D76F8B
:10514600EDEC02F000C0A9F190C103F0026A000E76
:10515600016E025000260350012200C090F101C0EA
:1051660091F1970E0201D76FEDEC02F0000E016E81
:1051760000C092F101C093F1960E0201D76FEDECDB
:1051860002F000C0A9F192C103F0026A000E016E9E
:10519600025000260350012200C092F101C093F193
:1051A600990E0201D76FEDEC02F0000E016E00C001
:1051B60094F101C095F1980E0201D76FEDEC02F063
:1051C60000C0A9F194C103F0026A000E016E0250FC
:1051D60000260350012200C094F101C095F19B0EF8
:1051E6000201D76FEDEC02F0000E016E00C096F1E1
:1051F60001C097F19A0E0201D76FEDEC02F000C0E4
:10520600A9F196C103F0026A000E016E0250002653
:105216000350012200C096F101C097F19D0E0201D4
:10522600D76FEDEC02F0000E016E00C098F101C0E0
:1052360099F19C0E0201D76FEDEC02F000C0A9F1C6
:1052460098C103F0026A000E016E02500026035058
:10525600012200C098F101C099F19F0E0201D76F9B
:10526600EDEC02F0000E016E00C09AF101C09BF158
:105276009E0E0201D76FEDEC02F000C0A9F19AC1B3
:1052860003F0026A000E016E02500026035001224E
:1052960000C09AF101C09BF1A10E0201D76FEDEC9F
:1052A60002F000C0A9F100C09CF1E20E0201D76F26
:1052B600EDEC02F0000E016E00C09DF101C09EF102
:1052C600E10E0201D76FEDEC02F000C0A9F19DC11D
:1052D60003F0026A000E016E0250002603500122FE
:1052E60000C09DF101C09EF1E30E0201D76FEDEC07
:1052F60002F000C0A9F100C09FF1E40E0201D76FD1
:10530600EDEC02F0000E016E00C0A0F101C0A1F1AB
:10531600E50E0201D76FEDEC02F000C0A9F1040E14
:10532600016EA0C102F0A1C103F0015005E00236F2
:1053360002900336FF0FFAD70F0E0016000E016E0D
:10534600025000120350011200C0A0F101C0A1F1E9
:10535600E60E0201D76FEDEC02F000C001F0000E80
:10536600026E01C0A2F102C0A3F1040E006E01C0DC
:1053760003F002C004F0005005E003360390043643
:10538600FF0FFAD7A9C100F00032009E0032009E3E
:105396000032009E0032009E000E016E0350001285
:1053A6000450011200C0A2F101C0A3F1E70E0201F0
:1053B600D76FEDEC02F000C0A9F100C0A4F1120015
:1053C6000201AA6B8BEC0FF0040E0201AA6F71DCCE
:1053D600050E0201AA6F5ADC020E0201AA6F12EC38
:1053E60016F0010E0201AA6F0AEC16F0030E020176
:0653F600AA6F41DC120069
:1053FC009CEC0BF00050010A0EE1AB0E0201AA6FFF
:10540C00010EAB6FA9C1ACF2AAC1ADF2FF0EAE6F2B
:0A541C0037EC0FF001D0ECD71200BE
:105426000101AC6BA9C1E9FFAAC1EAFFEECFABF15E
:10543600AB51000A0FE0ABC1DEF223EC00F0010134
:10544600AC2BAC51A925E96E000EAA21EA6EEECF6F
:06545600ABF1EED71200DD
:10545C00AE0E0101BE6F010EBF6FA9C1AAF2AAC1A7
:10546C00ABF2ABC1ACF2ACC1ADF2ADC1AEF2BE0EA3
:10547C000201AF6F010EB06F29EC16F000C0BCF149
:10548C0001C0BDF100500101A925E16E0150AA2116
:0E549C00E26EE66ABCC100F0BDC101F0120074
:1054AA00A0EC12F090EC06F0000E046E000E056EF1
:0E54BA00000E066E890E076EA3EC06F01200BF
:1054C8008DEC0FF090EC06F0000E046E000E056EE9
:0E54D800480E066E850E076EA3EC06F012005D
:1054E600D6EC14F0E8EC15F0000E046E000E056E16
:0E54F600480E066E850E076EA3EC06F012003F
:105504000900F5CFE6FF0006FBE10106F9E1120010
:10551400780E6E6E03DC0D0E0B6E2D0E0C6ED70E18
:105524000D6E0D2EFED70C2EFCD70B2EFAD70000D5
:1055340000007C86040E7D6EE10EAB6EA8845FECE9
:1055440026F00D0E0B6E2D0E0C6ED70E0D6E0D2E5D
:10555400FED70C2EFCD70B2EFAD700000000120049
:105564001F0E0101A96F000EAA6F5BDF1C0EA96F4D
:10557400000EAA6F41DF310E0101A96F000EAA6F60
:10558400310EAB6F590EAC6F000EAD6F65DF310E8F
:10559400A96F000EAA6F45DF190EA96F000EAA6F3E
:0455A4002BDF1200E7
:1055A8008BEC26F0005201E0FBD7CCEC26F097DF1D
:1055B80000C03CF101C03DF102C03EF103C03FF123
:1055C80070DF00C038F101C039F102C03AF103C000
:1055D8003BF176DF00C034F101C035F102C036F18D
:1055E80003C037F1630E0101A96F000EAA6FE20E26
:1055F800AB6F570EAC6F000EAD6F17C0AEF118C091
:10560800AFF13CC1B0F13DC1B1F13EC1B2F13FC112
:10561800B3F138C1B4F139C1B5F13AC1B6F13BC102
:10562800B7F100C0B8F101C0B9F102C0BAF103C0C6
:10563800BBF110DF174A182A310EA96F000EAA6FA6
:105648004D0EAB6F590EAC6F000EAD6F00C0AEF1D2
:1056580001C0AFF1FFDE310EA96F000EAA6FDFDEC9
:10566800150EA96F000EAA6FC5DE630E0101A96FA2
:08567800000EAA6FD4DE12003F
:105680009ADC010E0201AA6F49EC26F0010E02011C
:10569000AA6F12EC16F0010E0201AA6F0AEC16F0C6
:1056A000010E0201AA6F3EEC26F08BEC26F00052B0
:0C56B00001E0FBD7CCEC26F086DE1200F7
:0C56BC00D00E0201D76FEDEC02F01200DE
:1056C800C2EC2CF09B8C0A0E0B6E220E0C6EA10EF7
:1056D8000D6E0D2EFED70C2EFCD70B2EFAD7C088D8
:1056E800FF0EC16EFF0EC26E959810DF8C883D0EBE
:1056F8000B6EE10E0C6E3F0E0D6E0D2EFED70C2EAE
:10570800FCD70B2EFAD700000000D4DF00C02BF125
:105718003D0E0B6EE10E0C6E3F0E0D6E0D2EFED77C
:105728000C2EFCD70B2EFAD7000000008C983D0EEB
:105738000B6EE10E0C6E3F0E0D6E0D2EFED70C2E6D
:10574800FCD70B2EFAD70000000001012B51600A8C
:1057580001E0FFD78C883D0E0B6EE10E0C6E3F0EFC
:105768000D6E0D2EFED70C2EFCD70B2EFAD700008F
:10577800000082DF8C983D0E0B6EE10E0C6E3F0E22
:105788000D6E0D2EFED70C2EFCD70B2EFAD700006F
:105798000000E4DE8C887A0E0B6EC10E0C6E810E52
:1057A8000D6E0D2EFED70C2EFCD70B2EFAD700004F
:1057B8000000F6DE04DE040E0A6E920E0B6E240E56
:1057C8000C6ED70E0D6E0D2EFED70C2EFCD70B2EA1
:0A57D800FAD70A2EF8D7EDD7FFD755
:1059840010EE15F01C0E006E010E016E150EF66E73
:0E599400590EF76E000EF86E82EC2AF012002B
:1057E2007B224576656E744E6F2E223A0A7B2263C7
:1057F2006F756E74223A2025642C2274656D706573
:10580200726174757265223A20252E32662C2268E6
:10581200756D6964697479223A20252E32662C20CE
:10582200227072657373757265223A20252E326674
:035832007D7D0079
:105835000000007F000020820000488500007A8873
:1058450000401C8C0050438F00247492809618965B
:1058550020BC3E99286B6E9CF90215A0EC782DC1F1
:04586500CAF249E258
:105869000000007FCDCC4C7B0AD723786F120375DB
:1058790017B75171ACC5276EBD37066B95BF566713
:1058890077CC2B645F700961FFE65B5D08E53C3C02
:045899006042221B2C
:10589D0001000000080000004000000000020000B0
:1058AD000010000000800000000004000000200037
:1058BD000000000100000008000000400000000092
:1058CD00010000000A00000064000000E803000071
:1058DD0010270000A086010040420F00809698001E
:0858ED0000E1F50500CA9A3B39
:1058F5000100000010000000000100000010000081
:105905000000010000001000000000010000001070
:025915003E0052
:0259170001008D
:035919004F4B00F1
:03591C004F4B00EE
:07591F00415445300D0A0060
:07592600286E756C6C29006E
:04592D000000000076
:1059310041542B4157535055424F50454E3D302C09
:0C5941002277656174686572220D0A000F
:10594D0041542B4157535055424C4953483D302CEF
:05595D0025640D0A00A5
:1059620030313233343536373839616263646566D3
:015972000034
:105973003031323334353637383941424344454682
:015983000023
:020000040001F9
:06FFF800AEF7C4FFF8FFA4
:00000001FF
